{
  "_format": "hh-sol-artifact-1",
  "contractName": "Swap",
  "sourceName": "src/backend/contracts/Swap.sol",
  "abi": [
    {
      "inputs": [],
      "name": "DAI",
      "outputs": [
        {
          "internalType": "address",
          "name": "",
          "type": "address"
        }
      ],
      "stateMutability": "view",
      "type": "function"
    },
    {
      "inputs": [],
      "name": "USDC",
      "outputs": [
        {
          "internalType": "address",
          "name": "",
          "type": "address"
        }
      ],
      "stateMutability": "view",
      "type": "function"
    },
    {
      "inputs": [],
      "name": "poolFee",
      "outputs": [
        {
          "internalType": "uint24",
          "name": "",
          "type": "uint24"
        }
      ],
      "stateMutability": "view",
      "type": "function"
    },
    {
      "inputs": [
        {
          "internalType": "address",
          "name": "_tokenIn",
          "type": "address"
        },
        {
          "internalType": "address",
          "name": "_tokenOut",
          "type": "address"
        },
        {
          "internalType": "uint256",
          "name": "_amountIn",
          "type": "uint256"
        },
        {
          "internalType": "uint256",
          "name": "_amountOutMin",
          "type": "uint256"
        },
        {
          "internalType": "address",
          "name": "_to",
          "type": "address"
        }
      ],
      "name": "swap",
      "outputs": [],
      "stateMutability": "nonpayable",
      "type": "function"
    }
  ],
  "bytecode": "0x608060405234801561001057600080fd5b50610a05806100206000396000f3fe608060405234801561001057600080fd5b506004361061004c5760003560e01c8063089fe6aa1461005157806389a302711461006f578063d5bcb9b51461008d578063e0bab4c4146100a9575b600080fd5b6100596100c7565b60405161006691906107c3565b60405180910390f35b6100776100cd565b6040516100849190610748565b60405180910390f35b6100a760048036038101906100a291906105b5565b6100e5565b005b6100b16104b3565b6040516100be9190610748565b60405180910390f35b610bb881565b73a0b86991c6218b36c1d19d4a2e9eb0ce3606eb4881565b8473ffffffffffffffffffffffffffffffffffffffff166323b872dd3330866040518463ffffffff1660e01b815260040161012293929190610763565b602060405180830381600087803b15801561013c57600080fd5b505af1158015610150573d6000803e3d6000fd5b505050506040513d601f19601f82011682018060405250810190610174919061066d565b508473ffffffffffffffffffffffffffffffffffffffff1663095ea7b3737a250d5630b4cf539739df2c5dacb4c659f2488d856040518363ffffffff1660e01b81526004016101c492919061079a565b602060405180830381600087803b1580156101de57600080fd5b505af11580156101f2573d6000803e3d6000fd5b505050506040513d601f19601f82011682018060405250810190610216919061066d565b506060600367ffffffffffffffff81111561025a577f4e487b7100000000000000000000000000000000000000000000000000000000600052604160045260246000fd5b6040519080825280602002602001820160405280156102885781602001602082028036833780820191505090505b50905085816000815181106102c6577f4e487b7100000000000000000000000000000000000000000000000000000000600052603260045260246000fd5b602002602001019073ffffffffffffffffffffffffffffffffffffffff16908173ffffffffffffffffffffffffffffffffffffffff168152505073c02aaa39b223fe8d0a0e5c4f27ead9083c756cc28160018151811061034f577f4e487b7100000000000000000000000000000000000000000000000000000000600052603260045260246000fd5b602002602001019073ffffffffffffffffffffffffffffffffffffffff16908173ffffffffffffffffffffffffffffffffffffffff168152505084816002815181106103c4577f4e487b7100000000000000000000000000000000000000000000000000000000600052603260045260246000fd5b602002602001019073ffffffffffffffffffffffffffffffffffffffff16908173ffffffffffffffffffffffffffffffffffffffff1681525050737a250d5630b4cf539739df2c5dacb4c659f2488d73ffffffffffffffffffffffffffffffffffffffff166338ed173985858486426040518663ffffffff1660e01b81526004016104539594939291906107de565b600060405180830381600087803b15801561046d57600080fd5b505af1158015610481573d6000803e3d6000fd5b505050506040513d6000823e3d601f19601f820116820180604052508101906104aa919061062c565b50505050505050565b736b175474e89094c44da98b954eedeac495271d0f81565b60006104de6104d98461085d565b610838565b905080838252602082019050828560208602820111156104fd57600080fd5b60005b8581101561052d578161051388826105a0565b845260208401935060208301925050600181019050610500565b5050509392505050565b6000813590506105468161098a565b92915050565b600082601f83011261055d57600080fd5b815161056d8482602086016104cb565b91505092915050565b600081519050610585816109a1565b92915050565b60008135905061059a816109b8565b92915050565b6000815190506105af816109b8565b92915050565b600080600080600060a086880312156105cd57600080fd5b60006105db88828901610537565b95505060206105ec88828901610537565b94505060406105fd8882890161058b565b935050606061060e8882890161058b565b925050608061061f88828901610537565b9150509295509295909350565b60006020828403121561063e57600080fd5b600082015167ffffffffffffffff81111561065857600080fd5b6106648482850161054c565b91505092915050565b60006020828403121561067f57600080fd5b600061068d84828501610576565b91505092915050565b60006106a283836106ae565b60208301905092915050565b6106b7816108c2565b82525050565b6106c6816108c2565b82525050565b60006106d782610899565b6106e181856108b1565b93506106ec83610889565b8060005b8381101561071d5781516107048882610696565b975061070f836108a4565b9250506001810190506106f0565b5085935050505092915050565b61073381610900565b82525050565b6107428161090f565b82525050565b600060208201905061075d60008301846106bd565b92915050565b600060608201905061077860008301866106bd565b61078560208301856106bd565b6107926040830184610739565b949350505050565b60006040820190506107af60008301856106bd565b6107bc6020830184610739565b9392505050565b60006020820190506107d8600083018461072a565b92915050565b600060a0820190506107f36000830188610739565b6108006020830187610739565b818103604083015261081281866106cc565b905061082160608301856106bd565b61082e6080830184610739565b9695505050505050565b6000610842610853565b905061084e8282610919565b919050565b6000604051905090565b600067ffffffffffffffff8211156108785761087761094a565b5b602082029050602081019050919050565b6000819050602082019050919050565b600081519050919050565b6000602082019050919050565b600082825260208201905092915050565b60006108cd826108e0565b9050919050565b60008115159050919050565b600073ffffffffffffffffffffffffffffffffffffffff82169050919050565b600062ffffff82169050919050565b6000819050919050565b61092282610979565b810181811067ffffffffffffffff821117156109415761094061094a565b5b80604052505050565b7f4e487b7100000000000000000000000000000000000000000000000000000000600052604160045260246000fd5b6000601f19601f8301169050919050565b610993816108c2565b811461099e57600080fd5b50565b6109aa816108d4565b81146109b557600080fd5b50565b6109c18161090f565b81146109cc57600080fd5b5056fea2646970667358221220f8916a34ad92396a9ff0aec1d8f1e25f7c418c1a4a6b8c547979f733be32f3ec64736f6c63430008040033",
  "linkReferences": {},
  "deployedLinkReferences": {}
}